{
  "_format": "hh-sol-artifact-1",
  "contractName": "AdminBoxV2",
  "sourceName": "contracts/AdminBoxV2.sol",
  "abi": [
    {
      "anonymous": false,
      "inputs": [
        {
          "indexed": false,
          "internalType": "uint256",
          "name": "value",
          "type": "uint256"
        }
      ],
      "name": "ValueChanged",
      "type": "event"
    },
    {
      "inputs": [
        {
          "internalType": "uint256",
          "name": "value",
          "type": "uint256"
        }
      ],
      "name": "increment",
      "outputs": [],
      "stateMutability": "nonpayable",
      "type": "function"
    },
    {
      "inputs": [
        {
          "internalType": "address",
          "name": "admin",
          "type": "address"
        }
      ],
      "name": "initialize",
      "outputs": [],
      "stateMutability": "nonpayable",
      "type": "function"
    },
    {
      "inputs": [],
      "name": "retrieve",
      "outputs": [
        {
          "internalType": "uint256",
          "name": "",
          "type": "uint256"
        }
      ],
      "stateMutability": "view",
      "type": "function"
    },
    {
      "inputs": [
        {
          "internalType": "uint256",
          "name": "value",
          "type": "uint256"
        }
      ],
      "name": "store",
      "outputs": [],
      "stateMutability": "nonpayable",
      "type": "function"
    }
  ],
  "bytecode": "0x608060405234801561001057600080fd5b5061070e806100206000396000f3fe608060405234801561001057600080fd5b506004361061004c5760003560e01c80632e64cec1146100515780636057361d1461006f5780637cf5dab01461008b578063c4d66de8146100a7575b600080fd5b6100596100c3565b604051610066919061051c565b60405180910390f35b6100896004803603810190610084919061041b565b6100cd565b005b6100a560048036038101906100a0919061041b565b61019e565b005b6100c160048036038101906100bc91906103f2565b61027e565b005b6000600154905090565b600260009054906101000a900473ffffffffffffffffffffffffffffffffffffffff1673ffffffffffffffffffffffffffffffffffffffff163373ffffffffffffffffffffffffffffffffffffffff161461015d576040517f08c379a0000000000000000000000000000000000000000000000000000000008152600401610154906104fc565b60405180910390fd5b806001819055507f93fe6d397c74fdf1402a8b72e47b68512f0510d7b98a4bc4cbdf6ac7108b3c5981604051610193919061051c565b60405180910390a150565b600260009054906101000a900473ffffffffffffffffffffffffffffffffffffffff1673ffffffffffffffffffffffffffffffffffffffff163373ffffffffffffffffffffffffffffffffffffffff161461022e576040517f08c379a0000000000000000000000000000000000000000000000000000000008152600401610225906104bc565b60405180910390fd5b8060015461023c9190610548565b6001819055507f93fe6d397c74fdf1402a8b72e47b68512f0510d7b98a4bc4cbdf6ac7108b3c59600154604051610273919061051c565b60405180910390a150565b600060019054906101000a900460ff166102a65760008054906101000a900460ff16156102af565b6102ae6103a4565b5b6102ee576040517f08c379a00000000000000000000000000000000000000000000000000000000081526004016102e5906104dc565b60405180910390fd5b60008060019054906101000a900460ff16159050801561033e576001600060016101000a81548160ff02191690831515021790555060016000806101000a81548160ff0219169083151502179055505b81600260006101000a81548173ffffffffffffffffffffffffffffffffffffffff021916908373ffffffffffffffffffffffffffffffffffffffff16021790555080156103a05760008060016101000a81548160ff0219169083151502179055505b5050565b60006103af306103b5565b15905090565b600080823b905060008111915050919050565b6000813590506103d7816106aa565b92915050565b6000813590506103ec816106c1565b92915050565b60006020828403121561040457600080fd5b6000610412848285016103c8565b91505092915050565b60006020828403121561042d57600080fd5b600061043b848285016103dd565b91505092915050565b6000610451601483610537565b915061045c82610609565b602082019050919050565b6000610474602e83610537565b915061047f82610632565b604082019050919050565b6000610497601483610537565b91506104a282610681565b602082019050919050565b6104b6816105d0565b82525050565b600060208201905081810360008301526104d581610444565b9050919050565b600060208201905081810360008301526104f581610467565b9050919050565b600060208201905081810360008301526105158161048a565b9050919050565b600060208201905061053160008301846104ad565b92915050565b600082825260208201905092915050565b6000610553826105d0565b915061055e836105d0565b9250827fffffffffffffffffffffffffffffffffffffffffffffffffffffffffffffffff03821115610593576105926105da565b5b828201905092915050565b60006105a9826105b0565b9050919050565b600073ffffffffffffffffffffffffffffffffffffffff82169050919050565b6000819050919050565b7f4e487b7100000000000000000000000000000000000000000000000000000000600052601160045260246000fd5b7f41646d696e426f783a206e6f742041646d696e21000000000000000000000000600082015250565b7f496e697469616c697a61626c653a20636f6e747261637420697320616c72656160008201527f647920696e697469616c697a6564000000000000000000000000000000000000602082015250565b7f41646d696e426f783a206e6f742061646d696e21000000000000000000000000600082015250565b6106b38161059e565b81146106be57600080fd5b50565b6106ca816105d0565b81146106d557600080fd5b5056fea264697066735822122005dde7e8c242801c9ed681d8b301b8021e7ad0fe1efc3d9a16f9474997daf22c64736f6c63430008040033",
  "linkReferences": {},
  "deployedLinkReferences": {}
}