{
  "_format": "hh-sol-artifact-1",
  "contractName": "AdminBox",
  "sourceName": "contracts/AdminBox.sol",
  "abi": [
    {
      "anonymous": false,
      "inputs": [
        {
          "indexed": false,
          "internalType": "uint256",
          "name": "value",
          "type": "uint256"
        }
      ],
      "name": "ValueChanged",
      "type": "event"
    },
    {
      "inputs": [
        {
          "internalType": "address",
          "name": "admin",
          "type": "address"
        }
      ],
      "name": "initialize",
      "outputs": [],
      "stateMutability": "nonpayable",
      "type": "function"
    },
    {
      "inputs": [],
      "name": "retrieve",
      "outputs": [
        {
          "internalType": "uint256",
          "name": "",
          "type": "uint256"
        }
      ],
      "stateMutability": "view",
      "type": "function"
    },
    {
      "inputs": [
        {
          "internalType": "uint256",
          "name": "value",
          "type": "uint256"
        }
      ],
      "name": "store",
      "outputs": [],
      "stateMutability": "nonpayable",
      "type": "function"
    }
  ],
  "bytecode": "0x608060405234801561001057600080fd5b50610516806100206000396000f3fe608060405234801561001057600080fd5b50600436106100415760003560e01c80632e64cec1146100465780636057361d14610064578063c4d66de814610080575b600080fd5b61004e61009c565b60405161005b91906103d2565b60405180910390f35b61007e60048036038101906100799190610314565b6100a6565b005b61009a600480360381019061009591906102eb565b610177565b005b6000600154905090565b600260009054906101000a900473ffffffffffffffffffffffffffffffffffffffff1673ffffffffffffffffffffffffffffffffffffffff163373ffffffffffffffffffffffffffffffffffffffff1614610136576040517f08c379a000000000000000000000000000000000000000000000000000000000815260040161012d906103b2565b60405180910390fd5b806001819055507f93fe6d397c74fdf1402a8b72e47b68512f0510d7b98a4bc4cbdf6ac7108b3c598160405161016c91906103d2565b60405180910390a150565b600060019054906101000a900460ff1661019f5760008054906101000a900460ff16156101a8565b6101a761029d565b5b6101e7576040517f08c379a00000000000000000000000000000000000000000000000000000000081526004016101de90610392565b60405180910390fd5b60008060019054906101000a900460ff161590508015610237576001600060016101000a81548160ff02191690831515021790555060016000806101000a81548160ff0219169083151502179055505b81600260006101000a81548173ffffffffffffffffffffffffffffffffffffffff021916908373ffffffffffffffffffffffffffffffffffffffff16021790555080156102995760008060016101000a81548160ff0219169083151502179055505b5050565b60006102a8306102ae565b15905090565b600080823b905060008111915050919050565b6000813590506102d0816104b2565b92915050565b6000813590506102e5816104c9565b92915050565b6000602082840312156102fd57600080fd5b600061030b848285016102c1565b91505092915050565b60006020828403121561032657600080fd5b6000610334848285016102d6565b91505092915050565b600061034a602e836103ed565b91506103558261043a565b604082019050919050565b600061036d6014836103ed565b915061037882610489565b602082019050919050565b61038c81610430565b82525050565b600060208201905081810360008301526103ab8161033d565b9050919050565b600060208201905081810360008301526103cb81610360565b9050919050565b60006020820190506103e76000830184610383565b92915050565b600082825260208201905092915050565b600061040982610410565b9050919050565b600073ffffffffffffffffffffffffffffffffffffffff82169050919050565b6000819050919050565b7f496e697469616c697a61626c653a20636f6e747261637420697320616c72656160008201527f647920696e697469616c697a6564000000000000000000000000000000000000602082015250565b7f41646d696e426f783a206e6f742061646d696e21000000000000000000000000600082015250565b6104bb816103fe565b81146104c657600080fd5b50565b6104d281610430565b81146104dd57600080fd5b5056fea26469706673582212209776731bab9e4d1f4886bebc01ad3622dfd8a8d607a7ea3f4f1d53535551d07764736f6c63430008040033",
  "linkReferences": {},
  "deployedLinkReferences": {}
}